:020000040800F2
:1000000038070020890100087B1600080D1500083C
:10001000791600088B020008E519000800000000AE
:100020000000000000000000000000007F16000833
:100030008D020008000000007D16000881160008EF
:10004000A3010008A3010008A3010008A301000800
:10005000A3010008A3010008A3010008A3010008F0
:10006000A3010008A3010008A3010008A3010008E0
:10007000A3010008A3010008A3010008A3010008D0
:10008000A3010008A3010008A3010008A3010008C0
:10009000A3010008A3010008A3010008C50200088D
:1000A000A3010008A3010008A3010008A3010008A0
:1000B000E5160008A3010008A3010008A301000839
:1000C000A3010008A3010008A3010008A301000880
:1000D000A3010008D9190008A3010008A301000822
:1000E0008F020008A3010008A301000800F002F835
:1000F00000F03AF80AA090E8000C82448344AAF188
:100100000107DA4501D100F02FF8AFF2090EBAE885
:100110000F0013F0010F18BFFB1A43F0010318473B
:10012000D81A0000F81A0000103A24BF78C878C125
:10013000FAD8520724BF30C830C144BF04680C60ED
:10014000704700000023002400250026103A28BF35
:1001500078C1FBD8520728BF30C148BF0B60704739
:100160001FB51FBD10B510BD00F058F81146FFF7C0
:10017000F7FF01F09FFC00F076F803B4FFF7F2FF01
:1001800003BC00F07BF8000009488047094800479D
:10019000FEE7FEE7FEE7FEE7FEE7FEE7FEE7FEE737
:1001A000FEE7FEE704480549054A064B7047000094
:1001B000E3160008ED000008380100203807002091
:1001C00038030020380300204FF0000200B513462A
:1001D00094469646203922BFA0E80C50A0E80C5067
:1001E000B1F12001BFF4F7AF090728BFA0E80C5018
:1001F00048BF0CC05DF804EB890028BF40F8042B11
:1002000008BF704748BF20F8022B11F0804F18BF7D
:1002100000F8012B7047704770477047754600F033
:1002200029F8AE4605006946534620F0070085468A
:1002300018B020B5FFF7B6FFBDE820404FF000062C
:100240004FF000074FF000084FF0000B21F00701BE
:10025000AC46ACE8C009ACE8C009ACE8C009ACE801
:10026000C0098D4670470446AFF300802046FFF773
:1002700084FF000000487047D80000200149182082
:10028000ABBEFEE7260002007047FEE7704710B5E0
:100290004FF4806000F0FAF84FF4006000F0F6F8D8
:1002A0004FF4805000F0F2F84FF4005000F0EEF8F8
:1002B0004FF4804000F0EAF8BDE810404FF40040F1
:1002C00000F0E4B810B54FF4807000F0DFF8BDE83E
:1002D00010404FF4007000F0D9B810B590F821101C
:1002E0000022022905D00421816380F8202001200A
:1002F00010BD01680B6823F00E030B6001680B68EA
:1003000023F001030B6090F84030C46B012101FA27
:1003100003F3636080F8211080F82020104610BDA0
:1003200010B590F821100024022903D00421816324
:1003300001243DE001680A6822F00E020A600168AB
:100340000A6822F001020A601A4A0168914201D14A
:10035000012121E0174A1432914201D110211BE002
:10036000144A2832914201D1891515E0114A3C32D4
:10037000914201D189140FE00E4A5032914202D1CC
:100380004FF4803108E00B4A6432914202D14FF4BD
:10039000801101E04FF08071064A083A5160012156
:1003A00080F82110002180F82010416B01B18847AE
:1003B000204610BD0800024070B503464FF4FA60B5
:1003C00001F06EFB2D4D2E4CB3F5007F08D04FF49D
:1003D00000618B420DD1A87848B10020A87030E0B0
:1003E000287810B1002028702BE00120FBE70120C5
:1003F000F4E7B3F5807F0AD02248B3F5805F0DD0D3
:10040000B3F5005F14D0B3F5804F24D019E06878BD
:1004100010B10020687014E00120FBE700F032F911
:100420000128206802D0401E206008E0401CFBE745
:1004300000F028F9012860680BD0401E606001F0D0
:10044000E3FA4FF40041104800F01CF901280CD0E9
:1004500010E0401CF2E700F015F90128A06802D076
:10046000401EA060EBE7401CFBE700202870A06066
:1004700060602060BDE8704001F0C6BA0000002056
:100480003C00002000080140000C0140044910B568
:100490000A68024202D00860FFF78EFF10BD00001C
:1004A000140401402DE9F84FDFF8B8910024A9F1B8
:1004B000040B23460F2709F1040AABF1040EC9E02F
:1004C0000125A5402A40AA427DD1674ED1F804C03B
:1004D000ACEB0608B44532D014DCBCF1030F3AD0C3
:1004E00009DCBCF1000F2AD0BCF1010F1CD0BCF11B
:1004F000020F31D11DE0BCF1110F17D0BCF1120F6A
:100500002AD119E0B8F5881F19D006DCB8F5803F6C
:1005100015D0B8F5801F1FD111E0B8F5001F0ED01F
:10052000B8F5041F18D10AE0CB6815E0CB681B1D95
:1005300012E0CB6808330FE0CB680C330CE08B681B
:100540002BB1012B4FF0080303D0456104E00423D5
:1005500002E0056100E00023FF2A01D8064601E021
:1005600000F104064FEA840501D9A5F12005D6F86B
:10057000008007FA05FC28EA0C0803FA05F548EAAA
:100580000508C6F800804D68ED0062D5374DAE69AC
:1005900046F00106AE61AD6924F0030605F00105E1
:1005A0000095334D06EB050CDCF80850A607360F16
:1005B00007FA06F825EA0805DFF8B880404503D1B8
:1005C0004FF0000817E044E0DFF8AC80404502D16E
:1005D0004FF001080FE0DFF8A480404502D14FF052
:1005E000020808E0DFF89880404502D14FF0030888
:1005F00001E04FF0040808FA06F848EA0508CCF8CC
:1006000008804D68D9F80060ED024D4601D51643CB
:1006100000E096432E604D68DAF80060AD02554662
:1006200001D5164300E096432E604D68DBF800606C
:10063000AD035D4601D5164300E096432E604D683C
:10064000DEF80060ED03754601D5164300E09643E1
:100650002E60641C0D682A46E5407FF431AFBDE88A
:10066000F88F000008040140000011100010024043
:100670000000014000080140000C01400010014052
:10068000001401408068084000D0012070470AB182
:10069000016170470904FBE701488068704700006A
:1006A0002C00002002488168027811448160704764
:1006B0002C000020074810B5016841F010010160CE
:1006C000032000F075F8022000F006F800F024F88E
:1006D000002010BD0020024070B50D4D04464FF4BF
:1006E0007A712878B1FBF0F00A490968B1FBF0F0A3
:1006F00000F0DCFA48B9102C07D200222146501E27
:1007000000F036F800206C6070BD012070BD000064
:100710002C000020380000200C4808B5816941F009
:1007200001018161816901F001010091C16941F01C
:100730008051C161C06900F0805000900448416858
:1007400021F0E06141F08061416008BD001002408D
:1007500000000140002809DB00F01F020121914048
:100760004009800000F1E020C0F80011704700004F
:10077000F0B40E4B1B680C46C3F30223C3F107050C
:10078000042D00D90425191D072901D2002300E0FA
:10079000DB1E012606FA05F1491E214099409E40C4
:1007A000761E16403143F0BC01F01DB90CED00E09F
:1007B000064900F0070208684FF6FF03184040EAB8
:1007C0000220034A10430860704700000CED00E06F
:1007D0000000FA052DE9F0470F46050061D0434EB1
:1007E000306800F00700B84209D2306820F00700F6
:1007F00038433060306800F00700B84251D12868B3
:100800003B4C810712D5400703D5606840F4E06097
:1008100060602878000703D5606840F4605060602D
:100820006068A96820F0F000084360602878C0077D
:1008300028D06868012810D02168022810D08907C4
:1008400000292EDA616821F0030101436160FFF79E
:1008500023FF804641F288390DE021688903EFE7E4
:100860008901EDE7FFF718FFA0EB0801494502D920
:100870000320BDE8F0876068696800F00C00B0EB09
:10088000810FEFD1306800F00700B8420BD9306813
:1008900020F0070038433060306800F00700B842AD
:1008A00001D00120E5E72878400705D56068E968B0
:1008B00020F4E060084360602878000706D560688F
:1008C000296920F4605040EAC100606000F038F807
:1008D0006168084AC1F30311515CC84006490860C9
:1008E00006480068FFF7F8FE0020C2E7002002403B
:1008F00000100240DE1B00083800002030000020FD
:100900000448054900684968044AC1F30221515C62
:10091000C84070473800002000100240EE1B00085D
:100920000448054900684968044AC1F3C221515C82
:10093000C84070473800002000100240EE1B00083D
:100940000E4A51680E4801F00C03042B11D0082BFD
:100950000FD10C48C1F38343C903C05C0AD5516869
:10096000084AC1F34041921E515C054A5043B0FB16
:10097000F1F07047044948437047000000100240FE
:1009800000127A00CE1B000800093D002DE9F84F47
:10099000040070D02078C04DC00749D06868C0F30B
:1009A0008100012807D06868C0F38100022809D1BE
:1009B0006868C00306D52868800339D560680028B8
:1009C000E7D035E06068B0F5803F0BD010B1B0F5EE
:1009D000A02F11D0286820F480302860286820F4E7
:1009E000802002E0286840F480302860606890B180
:1009F000FFF752FE06460AE0286840F4802028608F
:100A0000F0E700BFFFF748FE801B642873D8286812
:100A10008003F7D50CE0FFF73FFE064605E000BF78
:100A2000FFF73AFE801B6428F0D828688003F7D4CB
:100A300020789A4E80074FF001094FF0000839D511
:100A4000686810F00C0F07D06868C0F381000228B6
:100A500009D16868C00306D42868800714D52069C6
:100A6000012808D110E02069B0B1C6F80090FFF766
:100A700013FE074605E00AE1FFF70EFEC01B022841
:100A8000C4D828688007F7D52868616920F0F80085
:100A900040EAC10028600DE0C6F80080FFF7FCFDC9
:100AA000074604E0FFF7F8FDC01B022823D828689A
:100AB0008007F7D4207800072CD57948A169D9B1EF
:100AC000C0F80090FFF7E8FD074604E0FFF7E4FDFB
:100AD000C01B02280FD8686A8007F7D571484FF409
:100AE000FA510068B0FBF1F0009000BF0098411E81
:100AF0000091FAD20EE080E0C0F80080FFF7CCFD54
:100B0000074604E0FFF7C8FDC01B022875D8686AD5
:100B10008007F7D42078400760D5E8690027C00037
:100B200008D4E86940F08050E861E869012700F0E6
:100B3000805000905C480168C90513D40168834661
:100B400041F480710160FFF7A7FD824606E000BF17
:100B5000FFF7A2FDA0EB0A0064284ED8DBF80000E6
:100B6000C005F5D5E06801280AD008B1052813D0E2
:100B7000286A20F001002862286A20F0040002E0C0
:100B8000286A40F001002862E06841F2883B98B191
:100B9000FFF782FD82460BE0286A40F004002862DD
:100BA000EEE700BFFFF778FDA0EB0A0159455AD8E0
:100BB000286A8007F6D50CE0FFF76EFD824605E057
:100BC000FFF76AFDA0EB0A0159454CD8286A800757
:100BD000F6D41FB1E86920F08050E861E06988B37D
:100BE0006968C1F38101022944D00228C6F86080F7
:100BF00004D0FFF751FD044638E034E0FFF74CFD28
:100C0000074604E0FFF748FDC01B02282BD82868E0
:100C10008001F7D4206AB0F5803F05D16868A168EB
:100C200020F4003008436860D4E90801084369688B
:100C300021F4741108436860C6F86090FFF72CFD3A
:100C4000044606E025E000BFFFF726FD001B022852
:100C500009D828688001F7D51BE000BFFFF71CFD0D
:100C6000001B022802D90320BDE8F88F2868800104
:100C7000F4D40EE00128F7D06868226A00F48031CD
:100C8000914204D1616A00F47010884201D00120C1
:100C9000EAE70020E8E700000010024000004242BE
:100CA00080044242380000200070004010B5401E11
:100CB000B0F1807F01D3012010BD4FF0E0246061CE
:100CC0000F21601700F08FFE0020A0610720206137
:100CD000002010BD7047704770B590F83C20012A85
:100CE00026D0012480F83C40022280F83D20036891
:100CF0005A689D6822F070060A6832435A600D4BAC
:100D000002689A4208D0B2F1804F05D00A4B9A424D
:100D100002D00A4B9A4204D1496825F08003194356
:100D2000916080F83D40002180F83C10084670BD7D
:100D3000022070BD002C014000040040000800406B
:100D400010B5040003D094F83D0010B107E0012075
:100D500010BD002084F83C00204600F01FF802205F
:100D600084F83D00211D206800F0C2FC012084F8B9
:100D7000460084F83E0084F83F0084F8400084F880
:100D8000410084F8420084F8430084F8440084F869
:100D9000450084F83D00002010BD000008B5006843
:100DA000B0F1804F12D10A48C16941F00101C1611F
:100DB000C069002200F00100009003211C20FFF711
:100DC000D7FCBDE808401C20FFF7C4BC08BD0000EC
:100DD0000010024090F83D10012901D00120704719
:100DE000022180F83D100168CA6842F00102CA6021
:100DF00000680B49884208D0B0F1804F05D00949FE
:100E0000884202D00849884204D1816801F0070174
:100E1000062903D0016841F00101016000207047FC
:100E2000002C0140000400400008004070B504465A
:100E300090F83C000025012817D0012684F83C607A
:100E4000022084F83D002068826822F0770222F4B4
:100E50007F4282600868502838D00DDC20284FD0AF
:100E600005DC90B3102811D14AE0022070BD302873
:100E700046D040280AD13BE060282FD070280DD002
:100E8000B0F5805F03D0B0F5005F12D0012584F883
:100E90003D60002084F83C00284670BDCB68D1E955
:100EA0000121206800F05AFC2068816841F0770138
:100EB00009E0CB68D1E90121206800F04FFC2068EF
:100EC000816841F480418160E1E719E0CA684968BE
:100ED000206800F055FC5021206806E0CA68496887
:100EE000206800F05EFC6021206800F041FCCEE745
:100EF000CA684968206800F043FC40212068F4E794
:100F0000226801461046F0E7704770B50446006855
:100F100001694FF00005C943890715D4C168C94369
:100F2000890711D4E91E01610120207720688069BA
:100F30008007204602D0FFF7E7FF04E000F098F8B2
:100F4000204600F096F8257720680169C9434907D3
:100F500017D4C168C943490713D46FF00401016174
:100F6000022020772068806910F4407F204602D05C
:100F7000FFF7CAFF04E000F07BF8204600F079F8A4
:100F8000257720680169C943090716D4C168C94398
:100F9000090712D46FF0080101610420207720684E
:100FA000C0698007204602D0FFF7AEFF04E000F0E2
:100FB0005FF8204600F05DF8257720680169C94395
:100FC000C90617D4C168C943C90613D46FF010010C
:100FD0000161082020772068C06910F4407F204616
:100FE00002D0FFF791FF04E000F042F8204600F045
:100FF00040F8257720680169C943C90708D1C1684D
:10100000C943C90704D1891E0161204600F032F8A6
:1010100020680169C943090609D4C168C9430906A2
:1010200005D46FF0800101612046FFF753FE206870
:101030000169C943490609D4C168C943490605D4B1
:101040006FF040010161204600F036F82068016928
:10105000C94389060BD4C168C943890607D46FF018
:10106000200101612046BDE87040FFF734BE70BD2D
:101070007047704730B50E4D0E4C287848B1204669
:10108000A978806809B1401C00E0401EA06000F013
:10109000BBFC206800280AD16068002807D1A0683E
:1010A000002804D12870BDE8304000F0ADBC30BD50
:1010B000000000203C00002070477047704700008F
:1010C000F8B5016804460868CA684B6910F00F0F4C
:1010D0004FF000055AD003F0010602F49077374331
:1010E00065D0C10705D0D10503D5616C41F0010180
:1010F0006164410705D5D90703D0616C41F0020155
:101100006164810705D5D90703D0616C41F0040102
:101110006164010707D502F02001314303D0616CFF
:1011200041F008016164616C00293BD0800604D560
:10113000900602D5204600F075FB20684069616C7E
:10114000C0F3801001F00801014320462BD000F0CD
:1011500042FB20684069400621D52068143050E8E1
:10116000001F21F0400140E80012002AF5D1E06B99
:10117000A8B16D494163E06BFFF7D2F8002811D0A8
:10118000E06B416B01B0BDE8F040084783060ED527
:1011900093060CD52046BDE8F84000F043BB20463E
:1011A000FFF78CFFF8BDFFF789FF6564F8BD266B7C
:1011B0002023012E7CD1C6067AD5D60678D50868BC
:1011C0004868009048694FF00206400640D5E16B40
:1011D000086840680004000CE8D0A28D8242E5D97E
:1011E000E085886920282DD020680C3050E8001F49
:1011F00021F4807140E80012002AF5D121681431F1
:1012000051E8000F20F0010041E80002002AF5D16A
:101210002068143050E8001F21F0400140E800121F
:10122000002AF5D184F84230256320680C3050E85C
:10123000001F21F0100140E80012002AF5D1E06BF8
:10124000FFF74BF86663A08DE18D401A81B22AE06A
:10125000A08DE18D401A81B2E08D0028A6D0002932
:10126000A4D022680C3252E8000F20F4907042E8BB
:101270000007002FF5D12068143050E8002F22F02D
:10128000010240E80027002FF5D184F842302563A1
:1012900020680C3050E8002F22F0100240E80023B4
:1012A000002BF5D166632046FFF707FFF8BDFFE787
:1012B00005062BD5150629D594F841002128F5D12E
:1012C000A068B0F5805F01D12069B0B1206A411CEF
:1012D0002162216800784860E08C401E0004000C08
:1012E000E084E3D12068C16821F08001C1602068FA
:1012F000C16841F04001C160D8E7206A0088C0F3AE
:1013000008004860206A801C2062E5E74006CDD5D1
:101310005006CBD5CA68204622F04002CA6084F845
:10132000413000F0F2F8C1E7C717000870B50400BB
:1013300004D094F84100002510B106E0012070BDF2
:1013400084F84050204600F023F8242084F841001F
:101350002068C16821F40051C160204600F0C4FA41
:101360002068016921F4904101612068416921F000
:101370002A0141612068C16841F40051C16065647F
:10138000202084F8410084F842006563002070BD8D
:1013900030B585B000240094019402940394006851
:1013A000184988422CD11848816941F480418161F3
:1013B000816901F480410491816941F004018161F6
:1013C0008069124D00F0040004904FF4007000900A
:1013D000022001900320039069462846FFF762F837
:1013E0002815CDE90004694628460294FFF75AF80B
:1013F000002211462520FFF7BBF92520FFF7AAF9A7
:1014000005B030BD00380140001002400008014026
:1014100090F84230202B01D00220704721B11AB140
:101420000023036300F0BCBA012070472DE9F041AE
:10143000264D274805F112046F782279617902EB75
:10144000820200EB42020A44A178E37801EB8101B9
:1014500000EB410126781944637806EB860600EB21
:101460004600184427B1EB1C9A705970187006E0BA
:10147000184B83E807000020287000F0C5FA1349D4
:1014800000201831225C0A54401C0228FADB03E0D9
:10149000225C0B18401C5A700428F9DB03E0225C24
:1014A0000B18401C9A700628F9DB084909480822E5
:1014B0001831543000F010F8BDE8F04103490548F8
:1014C000062212315430FFF7A3BF000000000020B5
:1014D000F0FDFFFF3C00002090F84130202B01D0B0
:1014E0000220704779B172B101628284C284002106
:1014F0004164212180F841100068C16841F08001F9
:10150000C16000207047012070477047FEE700006F
:101510002DE9F04186B000243948009401940294EA
:101520000394816941F010018161816901F010012A
:101530000491816941F020018161816901F02001FC
:101540000491816941F004018161816901F0040124
:101550000491816941F0080181618069DFF8A4800C
:1015600000F0080043F27E05049000222946404620
:10157000FFF78DF8244F0022FF213846FFF787F848
:101580000126CDE90056022569464046CDE90245CF
:10159000FEF788FFFF20CDE9000669463846CDE911
:1015A0000245FEF77FFF194E4FF45060CDE900066B
:1015B000694602943846FEF775FF4FF47240CDE954
:1015C0000006694602953846FEF76CFFA8028DE8D2
:1015D000310069464046FEF765FF002202211720D0
:1015E000FFF7C6F81720FFF7B5F8002201212820E1
:1015F000FFF7BEF82820FFF7ADF806B0BDE8F08190
:101600000010024000080140000C014000001110D1
:1016100010B586B0002417480094019402940394F6
:1016200004944FF080410594016041F61F41C0E9E8
:10163000011442F20F71C0E903148461FFF780FBCB
:1016400008B172B6FEE74FF4805000906946094831
:10165000FFF7ECFB08B172B6FEE7049404A9054855
:101660000594FFF739FB002801D072B6FEE706B0FB
:1016700010BD000048000020FEE7FEE770477047FD
:10168000FFF710B830B58FB028216846FEF79CFDF3
:1016900014210AA8FEF798FD01210804CDE90010E5
:1016A0000024029402250491CDE907504FF4E01084
:1016B00009906846FFF76AF908B172B6FEE70F2095
:1016C000CDE90A054FF48060CDE90C4002210AA85B
:1016D0000E94FFF77FF8002801D072B6FEE70FB036
:1016E00030BD70470148FFF710BC000048000020E3
:1016F000F0B50268164B174C174D4FF080479842D3
:1017000005D0B84203D0A04201D0A84203D122F0B4
:1017100070064A683243984205D0B84203D0A042CE
:1017200001D0A84203D122F44074CA6822434C6914
:1017300022F08002224302608A68C2620A688262E2
:10174000984201D10969016301214161F0BD0000A6
:10175000002C0140000400400008004010B58468DF
:1017600042EA032224F47F440A432243826010BDEC
:10177000826822F070020A4342F0070181607047DC
:1017800010B5036A046A24F001040462846924F039
:10179000F00444EA021423F00A020A43846102625C
:1017A00010BD10B5036A046A24F010040462846951
:1017B00023F0A00324F4704444EA023243EA011106
:1017C0008261016210BD10B5406A0021C185C184EB
:1017D000FFF774FC10BD01680C3151E8002F22F4B2
:1017E000907241E80023002BF5D10168143151E8D3
:1017F000002F22F0010241E80023002BF5D1016BFC
:10180000012909D101680C3151E8002F22F01002A2
:1018100041E80023002BF5D1202180F8421000215F
:101820000163704708B590F84210222901D00220C8
:1018300008BD82684FF480539A4201D1016921B1F9
:10184000816A9A421BD04AB10AE00268816A5268F2
:10185000C2F308020A80816A891C08E0026972B139
:101860000268526802F07F020A70816A491C816234
:10187000C18D491E0904090CC18503D01BE0026813
:101880005268F1E70168CA6822F02002CA60016864
:10189000CA6822F48072CA6001684A6922F00102B3
:1018A0004A61202180F8421000214163026B012A25
:1018B00003D0FFF7BBFD002008BD016301680C31B8
:1018C00051E8002F22F0100241E80023002BF5D14F
:1018D00001680A68D20602D50A6849680091818DBC
:1018E000FFF7EBFBE7E7000070B50446006801690D
:1018F000E26821F44051114301612169A068084365
:10190000616908432168CA6841F20C639A43024343
:10191000CA6020684169A26921F4407111434161A4
:101920001E492068884202D1FEF7FAFF01E0FEF767
:10193000E7FF00EBC00101EB00126068642180004A
:10194000B2FBF0F3B3FBF1F36FF018067343B2FB95
:10195000F0F5B2FBF0F605EB8305322303EB05153A
:10196000B5FBF1F5B6FBF1F605F0F00505EB061554
:10197000B2FBF0F6B2FBF0F0B0FBF1F06FF0180242
:10198000504306EB800003EB0010B0FBF1F0216840
:1019900000F00F002844886070BD0000003801404E
:1019A00081628285C28500214164222180F8421033
:1019B000016921B10168CA6842F48072CA60016895
:1019C0004A6942F001024A610068C16841F02001A1
:1019D000C1600020704700000148FFF771BB0000A4
:1019E00090000020FEE70907090E002804DB00F143
:1019F000E02080F80014704700F00F0000F1E020B4
:101A000080F8141D70470000234810B5826800213B
:101A10003C2A03DB81604268521C426083683B229F
:101A20005B1C03D143685B1EC0E9013243683C2B59
:101A300003DB416003685B1C036043685B1C03D1EC
:101A400003685B1EC0E900320268182A01DA1146F9
:101A500000E00160491C01D11721016083680A215F
:101A600093FBF1F201FB123493FBF1F30B4A547137
:101A70001371436893FBF1F401FB143493FBF1F30E
:101A8000D4709370006890FBF1F301FB130390FB9B
:101A9000F1F05370107010BD3C00002006000020D3
:101AA000002104E00222521C642AFCDB491C814212
:101AB000F8DB7047FEF7FEFDFFF7E4FDFFF728FDBA
:101AC0003E483D490C2201604FF41651416000210F
:101AD0008160C160C0E904128161C161FFF726FC29
:101AE00008B172B6FEE7FFF793FD34484838FFF7B8
:101AF00071F9062232493148FFF78AFC304DDFF890
:101B0000BCB00C3D2F4CDFF8C090ABF1540B05F18D
:101B10001A0805F1060ADBF80410DBF80020C1EB17
:101B20000111C2EB42168900C6EB0222DBF8080065
:101B300001EB02110F18224800230F384178027878
:101B4000C1EB0111C2EB42168900C6EB022280787C
:101B500001EB02110E18206840F0FF0020602068A1
:101B600020F0FF0020602068C3F105016A5C18F8CE
:101B7000021008432060D9F8001021F0FF01C9F8D5
:101B80000010D9F800101AF803201143C9F800100A
:101B90006420FFF785FF5B1C062BDCDBB81B0528E8
:101BA00001D8012200E0002207484FF480510C3890
:101BB000FEF76DFDAFE70000003801409000002007
:101BC000120000200C0C01400C080140010202032D
:101BD0000405060708090A0B0C0D0E0F1010000073
:101BE00000000000000001020304060708090000CD
:101BF0000000010203040000181C0008000000207F
:101C00003C00000028010008541C00083C00002093
:101C1000FC0600004401000800010100000A000069
:101C20000000000040201008040200000000000036
:101C300000003A00003A0100C0F9A4B0999282F87D
:101C40008090000001000000100000000000000073
:041C50000024F40078
:04000005080000ED02
:00000001FF
